reading from file level02.pcap, link-type EN10MB (Ethernet)
06:23:12.267566 IP 59.233.235.218.39247 > 59.233.235.223.12121: Flags [S], seq 2635601089, win 14600, options [mss 1460,sackOK,TS val 18592800 ecr 0,nop,wscale 7], length 0
	0x0000:  0800 27cc 8a1e 0024 1d0f 00ad 0800 4510  ..'....$......E.
	0x0010:  003c a0e1 4000 4006 4a3e 3be9 ebda 3be9  .<..@.@.J>;...;.
	0x0020:  ebdf 994f 2f59 9d18 14c1 0000 0000 a002  ...O/Y..........
	0x0030:  3908 8fad 0000 0204 05b4 0402 080a 011b  9...............
	0x0040:  b420 0000 0000 0103 0307                 ..........
06:23:12.267694 IP 59.233.235.223.12121 > 59.233.235.218.39247: Flags [S.], seq 3131636289, ack 2635601090, win 14480, options [mss 1460,sackOK,TS val 46280417 ecr 18592800,nop,wscale 5], length 0
	0x0000:  0024 1d0f 00ad 0800 27cc 8a1e 0800 4500  .$......'.....E.
	0x0010:  003c 0000 4000 4006 eb2f 3be9 ebdf 3be9  .<..@.@../;...;.
	0x0020:  ebda 2f59 994f baa8 fa41 9d18 14c2 a012  ../Y.O...A......
	0x0030:  3890 a988 0000 0204 05b4 0402 080a 02c2  8...............
	0x0040:  2ee1 011b b420 0103 0305                 ..........
06:23:12.267956 IP 59.233.235.218.39247 > 59.233.235.223.12121: Flags [.], ack 1, win 115, options [nop,nop,TS val 18592800 ecr 46280417], length 0
	0x0000:  0800 27cc 8a1e 0024 1d0f 00ad 0800 4510  ..'....$......E.
	0x0010:  0034 a0e2 4000 4006 4a45 3be9 ebda 3be9  .4..@.@.JE;...;.
	0x0020:  ebdf 994f 2f59 9d18 14c2 baa8 fa42 8010  ...O/Y.......B..
	0x0030:  0073 1070 0000 0101 080a 011b b420 02c2  .s.p............
	0x0040:  2ee1                                     ..
06:23:12.303574 IP 59.233.235.223.12121 > 59.233.235.218.39247: Flags [P.], seq 1:4, ack 1, win 453, options [nop,nop,TS val 46280426 ecr 18592800], length 3
	0x0000:  0024 1d0f 00ad 0800 27cc 8a1e 0800 4500  .$......'.....E.
	0x0010:  0037 d4a3 4000 4006 1691 3be9 ebdf 3be9  .7..@.@...;...;.
	0x0020:  ebda 2f59 994f baa8 fa42 9d18 14c2 8018  ../Y.O...B......
	0x0030:  01c5 ea0b 0000 0101 080a 02c2 2eea 011b  ................
	0x0040:  b420 fffd 25                             ....%
06:23:12.303821 IP 59.233.235.218.39247 > 59.233.235.223.12121: Flags [.], ack 4, win 115, options [nop,nop,TS val 18592804 ecr 46280426], length 0
	0x0000:  0800 27cc 8a1e 0024 1d0f 00ad 0800 4510  ..'....$......E.
	0x0010:  0034 a0e3 4000 4006 4a44 3be9 ebda 3be9  .4..@.@.JD;...;.
	0x0020:  ebdf 994f 2f59 9d18 14c2 baa8 fa45 8010  ...O/Y.......E..
	0x0030:  0073 1060 0000 0101 080a 011b b424 02c2  .s.`.........$..
	0x0040:  2eea                                     ..
06:23:12.303842 IP 59.233.235.218.39247 > 59.233.235.223.12121: Flags [P.], seq 1:4, ack 4, win 115, options [nop,nop,TS val 18592804 ecr 46280426], length 3
	0x0000:  0800 27cc 8a1e 0024 1d0f 00ad 0800 4510  ..'....$......E.
	0x0010:  0037 a0e4 4000 4006 4a40 3be9 ebda 3be9  .7..@.@.J@;...;.
	0x0020:  ebdf 994f 2f59 9d18 14c2 baa8 fa45 8018  ...O/Y.......E..
	0x0030:  0073 eb57 0000 0101 080a 011b b424 02c2  .s.W.........$..
	0x0040:  2eea fffc 25                             ....%
06:23:12.303962 IP 59.233.235.223.12121 > 59.233.235.218.39247: Flags [.], ack 4, win 453, options [nop,nop,TS val 46280426 ecr 18592804], length 0
	0x0000:  0024 1d0f 00ad 0800 27cc 8a1e 0800 4500  .$......'.....E.
	0x0010:  0034 d4a4 4000 4006 1693 3be9 ebdf 3be9  .4..@.@...;...;.
	0x0020:  ebda 2f59 994f baa8 fa45 9d18 14c5 8010  ../Y.O...E......
	0x0030:  01c5 0f0b 0000 0101 080a 02c2 2eea 011b  ................
	0x0040:  b424                                     .$
06:23:12.304147 IP 59.233.235.223.12121 > 59.233.235.218.39247: Flags [P.], seq 4:22, ack 4, win 453, options [nop,nop,TS val 46280426 ecr 18592804], length 18
	0x0000:  0024 1d0f 00ad 0800 27cc 8a1e 0800 4500  .$......'.....E.
	0x0010:  0046 d4a5 4000 4006 1680 3be9 ebdf 3be9  .F..@.@...;...;.
	0x0020:  ebda 2f59 994f baa8 fa45 9d18 14c5 8018  ../Y.O...E......
	0x0030:  01c5 a799 0000 0101 080a 02c2 2eea 011b  ................
	0x0040:  b424 fffb 26ff fd18 fffd 20ff fd23 fffd  .$..&........#..
	0x0050:  27ff fd24                                '..$
06:23:12.304264 IP 59.233.235.218.39247 > 59.233.235.223.12121: Flags [P.], seq 4:22, ack 22, win 115, options [nop,nop,TS val 18592804 ecr 46280426], length 18
	0x0000:  0800 27cc 8a1e 0024 1d0f 00ad 0800 4510  ..'....$......E.
	0x0010:  0046 a0e5 4000 4006 4a30 3be9 ebda 3be9  .F..@.@.J0;...;.
	0x0020:  ebdf 994f 2f59 9d18 14c5 baa8 fa57 8018  ...O/Y.......W..
	0x0030:  0073 adda 0000 0101 080a 011b b424 02c2  .s...........$..
	0x0040:  2eea fffe 26ff fb18 fffb 20ff fb23 fffb  ....&........#..
	0x0050:  27ff fc24                                '..$
06:23:12.304425 IP 59.233.235.223.12121 > 59.233.235.218.39247: Flags [P.], seq 22:46, ack 22, win 453, options [nop,nop,TS val 46280426 ecr 18592804], length 24
	0x0000:  0024 1d0f 00ad 0800 27cc 8a1e 0800 4500  .$......'.....E.
	0x0010:  004c d4a6 4000 4006 1679 3be9 ebdf 3be9  .L..@.@..y;...;.
	0x0020:  ebda 2f59 994f baa8 fa57 9d18 14d7 8018  ../Y.O...W......
	0x0030:  01c5 8d12 0000 0101 080a 02c2 2eea 011b  ................
	0x0040:  b424 fffa 2001 fff0 fffa 2301 fff0 fffa  .$........#.....
	0x0050:  2701 fff0 fffa 1801 fff0                 '.........
06:23:12.304605 IP 59.233.235.218.39247 > 59.233.235.223.12121: Flags [P.], seq 22:89, ack 46, win 115, options [nop,nop,TS val 18592804 ecr 46280426], length 67
	0x0000:  0800 27cc 8a1e 0024 1d0f 00ad 0800 4510  ..'....$......E.
	0x0010:  0077 a0e6 4000 4006 49fe 3be9 ebda 3be9  .w..@.@.I.;...;.
	0x0020:  ebdf 994f 2f59 9d18 14d7 baa8 fa6f 8018  ...O/Y.......o..
	0x0030:  0073 a48b 0000 0101 080a 011b b424 02c2  .s...........$..
	0x0040:  2eea fffa 2000 3338 3430 302c 3338 3430  ......38400,3840
	0x0050:  30ff f0ff fa23 0053 6f64 6143 616e 3a30  0....#.SodaCan:0
	0x0060:  fff0 fffa 2700 0044 4953 504c 4159 0153  ....'..DISPLAY.S
	0x0070:  6f64 6143 616e 3a30 fff0 fffa 1800 7874  odaCan:0......xt
	0x0080:  6572 6dff f0                             erm..
06:23:12.306736 IP 59.233.235.223.12121 > 59.233.235.218.39247: Flags [P.], seq 46:64, ack 89, win 453, options [nop,nop,TS val 46280427 ecr 18592804], length 18
	0x0000:  0024 1d0f 00ad 0800 27cc 8a1e 0800 4500  .$......'.....E.
	0x0010:  0046 d4a7 4000 4006 167e 3be9 ebdf 3be9  .F..@.@..~;...;.
	0x0020:  ebda 2f59 994f baa8 fa6f 9d18 151a 8018  ../Y.O...o......
	0x0030:  01c5 ea39 0000 0101 080a 02c2 2eeb 011b  ...9............
	0x0040:  b424 fffb 03ff fd01 fffd 22ff fd1f fffb  .$........".....
	0x0050:  05ff fd21                                ...!
06:23:12.306958 IP 59.233.235.218.39247 > 59.233.235.223.12121: Flags [P.], seq 89:163, ack 64, win 115, options [nop,nop,TS val 18592804 ecr 46280427], length 74
	0x0000:  0800 27cc 8a1e 0024 1d0f 00ad 0800 4510  ..'....$......E.
	0x0010:  007e a0e7 4000 4006 49f6 3be9 ebda 3be9  .~..@.@.I.;...;.
	0x0020:  ebdf 994f 2f59 9d18 151a baa8 fa81 8018  ...O/Y..........
	0x0030:  0073 4553 0000 0101 080a 011b b424 02c2  .sES.........$..
	0x0040:  2eeb fffd 03ff fc01 fffb 22ff fa22 0301  ..........".."..
	0x0050:  0000 0362 0304 020f 0500 0007 621c 0802  ...b........b...
	0x0060:  0409 421a 0a02 7f0b 0215 0f02 1110 0213  ..B.............
	0x0070:  1102 ffff 1202 ffff fff0 fffb 1fff fa1f  ................
	0x0080:  00b1 0031 fff0 fffd 05ff fb21            ...1.......!
06:23:12.307270 IP 59.233.235.223.12121 > 59.233.235.218.39247: Flags [P.], seq 64:71, ack 163, win 453, options [nop,nop,TS val 46280427 ecr 18592804], length 7
	0x0000:  0024 1d0f 00ad 0800 27cc 8a1e 0800 4500  .$......'.....E.
	0x0010:  003b d4a8 4000 4006 1688 3be9 ebdf 3be9  .;..@.@...;...;.
	0x0020:  ebda 2f59 994f baa8 fa81 9d18 1564 8018  ../Y.O.......d..
	0x0030:  01c5 f823 0000 0101 080a 02c2 2eeb 011b  ...#............
	0x0040:  b424 fffa 2201 03ff f0                   .$.."....
06:23:12.307408 IP 59.233.235.218.39247 > 59.233.235.223.12121: Flags [P.], seq 163:170, ack 71, win 115, options [nop,nop,TS val 18592804 ecr 46280427], length 7
	0x0000:  0800 27cc 8a1e 0024 1d0f 00ad 0800 4510  ..'....$......E.
	0x0010:  003b a0e8 4000 4006 4a38 3be9 ebda 3be9  .;..@.@.J8;...;.
	0x0020:  ebdf 994f 2f59 9d18 1564 baa8 fa88 8018  ...O/Y...d......
	0x0030:  0073 f56e 0000 0101 080a 011b b424 02c2  .s.n.........$..
	0x0040:  2eeb fffa 2201 07ff f0                   ...."....
06:23:12.307704 IP 59.233.235.223.12121 > 59.233.235.218.39247: Flags [P.], seq 71:86, ack 170, win 453, options [nop,nop,TS val 46280427 ecr 18592804], length 15
	0x0000:  0024 1d0f 00ad 0800 27cc 8a1e 0800 4500  .$......'.....E.
	0x0010:  0043 d4a9 4000 4006 167f 3be9 ebdf 3be9  .C..@.@...;...;.
	0x0020:  ebda 2f59 994f baa8 fa88 9d18 156b 8018  ../Y.O.......k..
	0x0030:  01c5 cc1f 0000 0101 080a 02c2 2eeb 011b  ................
	0x0040:  b424 fffa 2103 fff0 fffb 01ff fd00 fffe  .$..!...........
	0x0050:  22                                       "
06:23:12.307843 IP 59.233.235.218.39247 > 59.233.235.223.12121: Flags [P.], seq 170:179, ack 86, win 115, options [nop,nop,TS val 18592804 ecr 46280427], length 9
	0x0000:  0800 27cc 8a1e 0024 1d0f 00ad 0800 4510  ..'....$......E.
	0x0010:  003d a0e9 4000 4006 4a35 3be9 ebda 3be9  .=..@.@.J5;...;.
	0x0020:  ebdf 994f 2f59 9d18 156b baa8 fa97 8018  ...O/Y...k......
	0x0030:  0073 f057 0000 0101 080a 011b b424 02c2  .s.W.........$..
	0x0040:  2eeb fffd 01ff fb00 fffc 22              .........."
06:23:12.308016 IP 59.233.235.223.12121 > 59.233.235.218.39247: Flags [P.], seq 86:127, ack 179, win 453, options [nop,nop,TS val 46280427 ecr 18592804], length 41
	0x0000:  0024 1d0f 00ad 0800 27cc 8a1e 0800 4500  .$......'.....E.
	0x0010:  005d d4aa 4000 4006 1664 3be9 ebdf 3be9  .]..@.@..d;...;.
	0x0020:  ebda 2f59 994f baa8 fa97 9d18 1574 8018  ../Y.O.......t..
	0x0030:  01c5 5b61 0000 0101 080a 02c2 2eeb 011b  ..[a............
	0x0040:  b424 fffa 2203 03e2 0304 820f 07e2 1c08  .$.."...........
	0x0050:  8204 09c2 1a0a 827f 0b82 150f 8211 1082  ................
	0x0060:  1311 82ff ff12 82ff ffff f0              ...........
06:23:12.339309 IP 59.233.235.218.39247 > 59.233.235.223.12121: Flags [.], ack 127, win 115, options [nop,nop,TS val 18592808 ecr 46280427], length 0
	0x0000:  0800 27cc 8a1e 0024 1d0f 00ad 0800 4510  ..'....$......E.
	0x0010:  0034 a0ea 4000 4006 4a3d 3be9 ebda 3be9  .4..@.@.J=;...;.
	0x0020:  ebdf 994f 2f59 9d18 1574 baa8 fac0 8010  ...O/Y...t......
	0x0030:  0073 0f2e 0000 0101 080a 011b b428 02c2  .s...........(..
	0x0040:  2eeb                                     ..
06:23:12.339391 IP 59.233.235.223.12121 > 59.233.235.218.39247: Flags [P.], seq 127:202, ack 179, win 453, options [nop,nop,TS val 46280435 ecr 18592808], length 75
	0x0000:  0024 1d0f 00ad 0800 27cc 8a1e 0800 4500  .$......'.....E.
	0x0010:  007f d4ab 4000 4006 1641 3be9 ebdf 3be9  ....@.@..A;...;.
	0x0020:  ebda 2f59 994f baa8 fac0 9d18 1574 8018  ../Y.O.......t..
	0x0030:  01c5 4b8d 0000 0101 080a 02c2 2ef3 011b  ..K.............
	0x0040:  b428 0d0a 4c69 6e75 7820 322e 362e 3338  .(..Linux.2.6.38
	0x0050:  2d38 2d67 656e 6572 6963 2d70 6165 2028  -8-generic-pae.(
	0x0060:  3a3a 6666 6666 3a31 302e 312e 312e 3229  ::ffff:10.1.1.2)
	0x0070:  2028 7074 732f 3130 290d 0a0a 0100 7777  .(pts/10).....ww
	0x0080:  7762 7567 7320 6c6f 6769 6e3a 20         wbugs.login:.
06:23:12.339542 IP 59.233.235.218.39247 > 59.233.235.223.12121: Flags [.], ack 202, win 115, options [nop,nop,TS val 18592808 ecr 46280435], length 0
	0x0000:  0800 27cc 8a1e 0024 1d0f 00ad 0800 4510  ..'....$......E.
	0x0010:  0034 a0eb 4000 4006 4a3c 3be9 ebda 3be9  .4..@.@.J<;...;.
	0x0020:  ebdf 994f 2f59 9d18 1574 baa8 fb0b 8010  ...O/Y...t......
	0x0030:  0073 0edb 0000 0101 080a 011b b428 02c2  .s...........(..
	0x0040:  2ef3                                     ..
06:23:24.491452 IP 59.233.235.218.39247 > 59.233.235.223.12121: Flags [P.], seq 179:180, ack 202, win 115, options [nop,nop,TS val 18594023 ecr 46280435], length 1
	0x0000:  0800 27cc 8a1e 0024 1d0f 00ad 0800 4510  ..'....$......E.
	0x0010:  0035 a0ec 4000 4006 4a3a 3be9 ebda 3be9  .5..@.@.J:;...;.
	0x0020:  ebdf 994f 2f59 9d18 1574 baa8 fb0b 8018  ...O/Y...t......
	0x0030:  0073 9e12 0000 0101 080a 011b b8e7 02c2  .s..............
	0x0040:  2ef3 6c                                  ..l
06:23:24.496998 IP 59.233.235.223.12121 > 59.233.235.218.39247: Flags [P.], seq 202:204, ack 180, win 453, options [nop,nop,TS val 46283475 ecr 18594023], length 2
	0x0000:  0024 1d0f 00ad 0800 27cc 8a1e 0800 4500  .$......'.....E.
	0x0010:  0036 d4ac 4000 4006 1689 3be9 ebdf 3be9  .6..@.@...;...;.
	0x0020:  ebda 2f59 994f baa8 fb0b 9d18 1575 8018  ../Y.O.......u..
	0x0030:  01c5 fc72 0000 0101 080a 02c2 3ad3 011b  ...r........:...
	0x0040:  b8e7 006c                                ...l
06:23:24.497158 IP 59.233.235.218.39247 > 59.233.235.223.12121: Flags [.], ack 204, win 115, options [nop,nop,TS val 18594023 ecr 46283475], length 0
	0x0000:  0800 27cc 8a1e 0024 1d0f 00ad 0800 4510  ..'....$......E.
	0x0010:  0034 a0ed 4000 4006 4a3a 3be9 ebda 3be9  .4..@.@.J:;...;.
	0x0020:  ebdf 994f 2f59 9d18 1575 baa8 fb0d 8010  ...O/Y...u......
	0x0030:  0073 fe38 0000 0101 080a 011b b8e7 02c2  .s.8............
	0x0040:  3ad3                                     :.
06:23:24.591456 IP 59.233.235.218.39247 > 59.233.235.223.12121: Flags [P.], seq 180:181, ack 204, win 115, options [nop,nop,TS val 18594033 ecr 46283475], length 1
	0x0000:  0800 27cc 8a1e 0024 1d0f 00ad 0800 4510  ..'....$......E.
	0x0010:  0035 a0ee 4000 4006 4a38 3be9 ebda 3be9  .5..@.@.J8;...;.
	0x0020:  ebdf 994f 2f59 9d18 1575 baa8 fb0d 8018  ...O/Y...u......
	0x0030:  0073 9925 0000 0101 080a 011b b8f1 02c2  .s.%............
	0x0040:  3ad3 65                                  :.e
06:23:24.597002 IP 59.233.235.223.12121 > 59.233.235.218.39247: Flags [P.], seq 204:206, ack 181, win 453, options [nop,nop,TS val 46283500 ecr 18594033], length 2
	0x0000:  0024 1d0f 00ad 0800 27cc 8a1e 0800 4500  .$......'.....E.
	0x0010:  0036 d4ad 4000 4006 1688 3be9 ebdf 3be9  .6..@.@...;...;.
	0x0020:  ebda 2f59 994f baa8 fb0d 9d18 1576 8018  ../Y.O.......v..
	0x0030:  01c5 fc53 0000 0101 080a 02c2 3aec 011b  ...S........:...
	0x0040:  b8f1 0065                                ...e
06:23:24.597220 IP 59.233.235.218.39247 > 59.233.235.223.12121: Flags [.], ack 206, win 115, options [nop,nop,TS val 18594033 ecr 46283500], length 0
	0x0000:  0800 27cc 8a1e 0024 1d0f 00ad 0800 4510  ..'....$......E.
	0x0010:  0034 a0ef 4000 4006 4a38 3be9 ebda 3be9  .4..@.@.J8;...;.
	0x0020:  ebdf 994f 2f59 9d18 1576 baa8 fb0f 8010  ...O/Y...v......
	0x0030:  0073 fe12 0000 0101 080a 011b b8f1 02c2  .s..............
	0x0040:  3aec                                     :.
06:23:24.821113 IP 59.233.235.218.39247 > 59.233.235.223.12121: Flags [P.], seq 181:182, ack 206, win 115, options [nop,nop,TS val 18594056 ecr 46283500], length 1
	0x0000:  0800 27cc 8a1e 0024 1d0f 00ad 0800 4510  ..'....$......E.
	0x0010:  0035 a0f0 4000 4006 4a36 3be9 ebda 3be9  .5..@.@.J6;...;.
	0x0020:  ebdf 994f 2f59 9d18 1576 baa8 fb0f 8018  ...O/Y...v......
	0x0030:  0073 87f2 0000 0101 080a 011b b908 02c2  .s..............
	0x0040:  3aec 76                                  :.v
06:23:24.828963 IP 59.233.235.223.12121 > 59.233.235.218.39247: Flags [P.], seq 206:208, ack 182, win 453, options [nop,nop,TS val 46283558 ecr 18594056], length 2
	0x0000:  0024 1d0f 00ad 0800 27cc 8a1e 0800 4500  .$......'.....E.
	0x0010:  0036 d4ae 4000 4006 1687 3be9 ebdf 3be9  .6..@.@...;...;.
	0x0020:  ebda 2f59 994f baa8 fb0f 9d18 1577 8018  ../Y.O.......w..
	0x0030:  01c5 fbee 0000 0101 080a 02c2 3b26 011b  ............;&..
	0x0040:  b908 0076                                ...v
06:23:24.829099 IP 59.233.235.218.39247 > 59.233.235.223.12121: Flags [.], ack 208, win 115, options [nop,nop,TS val 18594056 ecr 46283558], length 0
	0x0000:  0800 27cc 8a1e 0024 1d0f 00ad 0800 4510  ..'....$......E.
	0x0010:  0034 a0f1 4000 4006 4a36 3be9 ebda 3be9  .4..@.@.J6;...;.
	0x0020:  ebdf 994f 2f59 9d18 1577 baa8 fb11 8010  ...O/Y...w......
	0x0030:  0073 fdbe 0000 0101 080a 011b b908 02c2  .s..............
	0x0040:  3b26                                     ;&
06:23:24.911733 IP 59.233.235.218.39247 > 59.233.235.223.12121: Flags [P.], seq 182:183, ack 208, win 115, options [nop,nop,TS val 18594065 ecr 46283558], length 1
	0x0000:  0800 27cc 8a1e 0024 1d0f 00ad 0800 4510  ..'....$......E.
	0x0010:  0035 a0f2 4000 4006 4a34 3be9 ebda 3be9  .5..@.@.J4;...;.
	0x0020:  ebdf 994f 2f59 9d18 1577 baa8 fb11 8018  ...O/Y...w......
	0x0030:  0073 98ac 0000 0101 080a 011b b911 02c2  .s..............
	0x0040:  3b26 65                                  ;&e
06:23:24.916960 IP 59.233.235.223.12121 > 59.233.235.218.39247: Flags [P.], seq 208:210, ack 183, win 453, options [nop,nop,TS val 46283580 ecr 18594065], length 2
	0x0000:  0024 1d0f 00ad 0800 27cc 8a1e 0800 4500  .$......'.....E.
	0x0010:  0036 d4af 4000 4006 1686 3be9 ebdf 3be9  .6..@.@...;...;.
	0x0020:  ebda 2f59 994f baa8 fb11 9d18 1578 8018  ../Y.O.......x..
	0x0030:  01c5 fbdd 0000 0101 080a 02c2 3b3c 011b  ............;<..
	0x0040:  b911 0065                                ...e
06:23:24.917093 IP 59.233.235.218.39247 > 59.233.235.223.12121: Flags [.], ack 210, win 115, options [nop,nop,TS val 18594065 ecr 46283580], length 0
	0x0000:  0800 27cc 8a1e 0024 1d0f 00ad 0800 4510  ..'....$......E.
	0x0010:  0034 a0f3 4000 4006 4a34 3be9 ebda 3be9  .4..@.@.J4;...;.
	0x0020:  ebdf 994f 2f59 9d18 1578 baa8 fb13 8010  ...O/Y...x......
	0x0030:  0073 fd9c 0000 0101 080a 011b b911 02c2  .s..............
	0x0040:  3b3c                                     ;<
06:23:24.981645 IP 59.233.235.218.39247 > 59.233.235.223.12121: Flags [P.], seq 183:184, ack 210, win 115, options [nop,nop,TS val 18594072 ecr 46283580], length 1
	0x0000:  0800 27cc 8a1e 0024 1d0f 00ad 0800 4510  ..'....$......E.
	0x0010:  0035 a0f4 4000 4006 4a32 3be9 ebda 3be9  .5..@.@.J2;...;.
	0x0020:  ebdf 994f 2f59 9d18 1578 baa8 fb13 8018  ...O/Y...x......
	0x0030:  0073 918c 0000 0101 080a 011b b918 02c2  .s..............
	0x0040:  3b3c 6c                                  ;<l
06:23:24.988957 IP 59.233.235.223.12121 > 59.233.235.218.39247: Flags [P.], seq 210:212, ack 184, win 453, options [nop,nop,TS val 46283598 ecr 18594072], length 2
	0x0000:  0024 1d0f 00ad 0800 27cc 8a1e 0800 4500  .$......'.....E.
	0x0010:  0036 d4b0 4000 4006 1685 3be9 ebdf 3be9  .6..@.@...;...;.
	0x0020:  ebda 2f59 994f baa8 fb13 9d18 1579 8018  ../Y.O.......y..
	0x0030:  01c5 fbba 0000 0101 080a 02c2 3b4e 011b  ............;N..
	0x0040:  b918 006c                                ...l
06:23:24.989096 IP 59.233.235.218.39247 > 59.233.235.223.12121: Flags [.], ack 212, win 115, options [nop,nop,TS val 18594072 ecr 46283598], length 0
	0x0000:  0800 27cc 8a1e 0024 1d0f 00ad 0800 4510  ..'....$......E.
	0x0010:  0034 a0f5 4000 4006 4a32 3be9 ebda 3be9  .4..@.@.J2;...;.
	0x0020:  ebdf 994f 2f59 9d18 1579 baa8 fb15 8010  ...O/Y...y......
	0x0030:  0073 fd80 0000 0101 080a 011b b918 02c2  .s..............
	0x0040:  3b4e                                     ;N
06:23:25.311494 IP 59.233.235.218.39247 > 59.233.235.223.12121: Flags [P.], seq 184:185, ack 212, win 115, options [nop,nop,TS val 18594105 ecr 46283598], length 1
	0x0000:  0800 27cc 8a1e 0024 1d0f 00ad 0800 4510  ..'....$......E.
	0x0010:  0035 a0f6 4000 4006 4a30 3be9 ebda 3be9  .5..@.@.J0;...;.
	0x0020:  ebdf 994f 2f59 9d18 1579 baa8 fb15 8018  ...O/Y...y......
	0x0030:  0073 a556 0000 0101 080a 011b b939 02c2  .s.V.........9..
	0x0040:  3b4e 58                                  ;NX
06:23:25.317086 IP 59.233.235.223.12121 > 59.233.235.218.39247: Flags [P.], seq 212:214, ack 185, win 453, options [nop,nop,TS val 46283680 ecr 18594105], length 2
	0x0000:  0024 1d0f 00ad 0800 27cc 8a1e 0800 4500  .$......'.....E.
	0x0010:  0036 d4b1 4000 4006 1684 3be9 ebdf 3be9  .6..@.@...;...;.
	0x0020:  ebda 2f59 994f baa8 fb15 9d18 157a 8018  ../Y.O.......z..
	0x0030:  01c5 fb58 0000 0101 080a 02c2 3ba0 011b  ...X........;...
	0x0040:  b939 0058                                .9.X
06:23:25.317328 IP 59.233.235.218.39247 > 59.233.235.223.12121: Flags [.], ack 214, win 115, options [nop,nop,TS val 18594105 ecr 46283680], length 0
	0x0000:  0800 27cc 8a1e 0024 1d0f 00ad 0800 4510  ..'....$......E.
	0x0010:  0034 a0f7 4000 4006 4a30 3be9 ebda 3be9  .4..@.@.J0;...;.
	0x0020:  ebdf 994f 2f59 9d18 157a baa8 fb17 8010  ...O/Y...z......
	0x0030:  0073 fd0a 0000 0101 080a 011b b939 02c2  .s...........9..
	0x0040:  3ba0                                     ;.
06:23:26.091422 IP 59.233.235.218.39247 > 59.233.235.223.12121: Flags [P.], seq 185:186, ack 214, win 115, options [nop,nop,TS val 18594183 ecr 46283680], length 1
	0x0000:  0800 27cc 8a1e 0024 1d0f 00ad 0800 4510  ..'....$......E.
	0x0010:  0035 a0f8 4000 4006 4a2e 3be9 ebda 3be9  .5..@.@.J.;...;.
	0x0020:  ebdf 994f 2f59 9d18 157a baa8 fb17 8018  ...O/Y...z......
	0x0030:  0073 efb3 0000 0101 080a 011b b987 02c2  .s..............
	0x0040:  3ba0 0d                                  ;..
06:23:26.094869 IP 59.233.235.223.12121 > 59.233.235.218.39247: Flags [P.], seq 214:215, ack 186, win 453, options [nop,nop,TS val 46283874 ecr 18594183], length 1
	0x0000:  0024 1d0f 00ad 0800 27cc 8a1e 0800 4500  .$......'.....E.
	0x0010:  0035 d4b2 4000 4006 1684 3be9 ebdf 3be9  .5..@.@...;...;.
	0x0020:  ebda 2f59 994f baa8 fb17 9d18 157b 8018  ../Y.O.......{..
	0x0030:  01c5 f99e 0000 0101 080a 02c2 3c62 011b  ............<b..
	0x0040:  b987 01                                  ...
06:23:26.095123 IP 59.233.235.218.39247 > 59.233.235.223.12121: Flags [.], ack 215, win 115, options [nop,nop,TS val 18594183 ecr 46283874], length 0
	0x0000:  0800 27cc 8a1e 0024 1d0f 00ad 0800 4510  ..'....$......E.
	0x0010:  0034 a0f9 4000 4006 4a2e 3be9 ebda 3be9  .4..@.@.J.;...;.
	0x0020:  ebdf 994f 2f59 9d18 157b baa8 fb18 8010  ...O/Y...{......
	0x0030:  0073 fbf8 0000 0101 080a 011b b987 02c2  .s..............
	0x0040:  3c62                                     <b
06:23:26.095219 IP 59.233.235.223.12121 > 59.233.235.218.39247: Flags [P.], seq 215:228, ack 186, win 453, options [nop,nop,TS val 46283874 ecr 18594183], length 13
	0x0000:  0024 1d0f 00ad 0800 27cc 8a1e 0800 4500  .$......'.....E.
	0x0010:  0041 d4b3 4000 4006 1677 3be9 ebdf 3be9  .A..@.@..w;...;.
	0x0020:  ebda 2f59 994f baa8 fb18 9d18 157b 8018  ../Y.O.......{..
	0x0030:  01c5 279d 0000 0101 080a 02c2 3c62 011b  ..'.........<b..
	0x0040:  b987 000d 0a50 6173 7377 6f72 643a 20    .....Password:.
06:23:26.095329 IP 59.233.235.218.39247 > 59.233.235.223.12121: Flags [.], ack 228, win 115, options [nop,nop,TS val 18594183 ecr 46283874], length 0
	0x0000:  0800 27cc 8a1e 0024 1d0f 00ad 0800 4510  ..'....$......E.
	0x0010:  0034 a0fa 4000 4006 4a2d 3be9 ebda 3be9  .4..@.@.J-;...;.
	0x0020:  ebdf 994f 2f59 9d18 157b baa8 fb25 8010  ...O/Y...{...%..
	0x0030:  0073 fbeb 0000 0101 080a 011b b987 02c2  .s..............
	0x0040:  3c62                                     <b
06:23:34.363418 IP 59.233.235.218.39247 > 59.233.235.223.12121: Flags [P.], seq 186:187, ack 228, win 115, options [nop,nop,TS val 18595010 ecr 46283874], length 1
	0x0000:  0800 27cc 8a1e 0024 1d0f 00ad 0800 4510  ..'....$......E.
	0x0010:  0035 a0fb 4000 4006 4a2b 3be9 ebda 3be9  .5..@.@.J+;...;.
	0x0020:  ebdf 994f 2f59 9d18 157b baa8 fb25 8018  ...O/Y...{...%..
	0x0030:  0073 92a7 0000 0101 080a 011b bcc2 02c2  .s..............
	0x0040:  3c62 66                                  <bf
06:23:34.400964 IP 59.233.235.223.12121 > 59.233.235.218.39247: Flags [.], ack 187, win 453, options [nop,nop,TS val 46285951 ecr 18595010], length 0
	0x0000:  0024 1d0f 00ad 0800 27cc 8a1e 0800 4500  .$......'.....E.
	0x0010:  0034 d4b4 4000 4006 1683 3be9 ebdf 3be9  .4..@.@...;...;.
	0x0020:  ebda 2f59 994f baa8 fb25 9d18 157c 8010  ../Y.O...%...|..
	0x0030:  01c5 ef40 0000 0101 080a 02c2 447f 011b  ...@........D...
	0x0040:  bcc2                                     ..
06:23:35.253053 IP 59.233.235.218.39247 > 59.233.235.223.12121: Flags [P.], seq 187:188, ack 228, win 115, options [nop,nop,TS val 18595099 ecr 46285951], length 1
	0x0000:  0800 27cc 8a1e 0024 1d0f 00ad 0800 4510  ..'....$......E.
	0x0010:  0035 a0fc 4000 4006 4a2a 3be9 ebda 3be9  .5..@.@.J*;...;.
	0x0020:  ebdf 994f 2f59 9d18 157c baa8 fb25 8018  ...O/Y...|...%..
	0x0030:  0073 7c30 0000 0101 080a 011b bd1b 02c2  .s|0............
	0x0040:  447f 74                                  D.t
06:23:35.253134 IP 59.233.235.223.12121 > 59.233.235.218.39247: Flags [.], ack 188, win 453, options [nop,nop,TS val 46286164 ecr 18595099], length 0
	0x0000:  0024 1d0f 00ad 0800 27cc 8a1e 0800 4500  .$......'.....E.
	0x0010:  0034 d4b5 4000 4006 1682 3be9 ebdf 3be9  .4..@.@...;...;.
	0x0020:  ebda 2f59 994f baa8 fb25 9d18 157d 8010  ../Y.O...%...}..
	0x0030:  01c5 ee11 0000 0101 080a 02c2 4554 011b  ............ET..
	0x0040:  bd1b                                     ..
06:23:35.873401 IP 59.233.235.218.39247 > 59.233.235.223.12121: Flags [P.], seq 188:189, ack 228, win 115, options [nop,nop,TS val 18595161 ecr 46286164], length 1
	0x0000:  0800 27cc 8a1e 0024 1d0f 00ad 0800 4510  ..'....$......E.
	0x0010:  0035 a0fd 4000 4006 4a29 3be9 ebda 3be9  .5..@.@.J);...;.
	0x0020:  ebdf 994f 2f59 9d18 157d baa8 fb25 8018  ...O/Y...}...%..
	0x0030:  0073 901c 0000 0101 080a 011b bd59 02c2  .s...........Y..
	0x0040:  4554 5f                                  ET_
06:23:35.873472 IP 59.233.235.223.12121 > 59.233.235.218.39247: Flags [.], ack 189, win 453, options [nop,nop,TS val 46286319 ecr 18595161], length 0
	0x0000:  0024 1d0f 00ad 0800 27cc 8a1e 0800 4500  .$......'.....E.
	0x0010:  0034 d4b6 4000 4006 1681 3be9 ebdf 3be9  .4..@.@...;...;.
	0x0020:  ebda 2f59 994f baa8 fb25 9d18 157e 8010  ../Y.O...%...~..
	0x0030:  01c5 ed37 0000 0101 080a 02c2 45ef 011b  ...7........E...
	0x0040:  bd59                                     .Y
06:23:36.343811 IP 59.233.235.218.39247 > 59.233.235.223.12121: Flags [P.], seq 189:190, ack 228, win 115, options [nop,nop,TS val 18595208 ecr 46286319], length 1
	0x0000:  0800 27cc 8a1e 0024 1d0f 00ad 0800 4510  ..'....$......E.
	0x0010:  0035 a0fe 4000 4006 4a28 3be9 ebda 3be9  .5..@.@.J(;...;.
	0x0020:  ebdf 994f 2f59 9d18 157e baa8 fb25 8018  ...O/Y...~...%..
	0x0030:  0073 7751 0000 0101 080a 011b bd88 02c2  .swQ............
	0x0040:  45ef 77                                  E.w
06:23:36.343888 IP 59.233.235.223.12121 > 59.233.235.218.39247: Flags [.], ack 190, win 453, options [nop,nop,TS val 46286436 ecr 18595208], length 0
	0x0000:  0024 1d0f 00ad 0800 27cc 8a1e 0800 4500  .$......'.....E.
	0x0010:  0034 d4b7 4000 4006 1680 3be9 ebdf 3be9  .4..@.@...;...;.
	0x0020:  ebda 2f59 994f baa8 fb25 9d18 157f 8010  ../Y.O...%......
	0x0030:  01c5 ec92 0000 0101 080a 02c2 4664 011b  ............Fd..
	0x0040:  bd88                                     ..
06:23:36.573585 IP 59.233.235.218.39247 > 59.233.235.223.12121: Flags [P.], seq 190:191, ack 228, win 115, options [nop,nop,TS val 18595231 ecr 46286436], length 1
	0x0000:  0800 27cc 8a1e 0024 1d0f 00ad 0800 4510  ..'....$......E.
	0x0010:  0035 a0ff 4000 4006 4a27 3be9 ebda 3be9  .5..@.@.J';...;.
	0x0020:  ebdf 994f 2f59 9d18 157f baa8 fb25 8018  ...O/Y.......%..
	0x0030:  0073 8cc4 0000 0101 080a 011b bd9f 02c2  .s..............
	0x0040:  4664 61                                  Fda
06:23:36.573646 IP 59.233.235.223.12121 > 59.233.235.218.39247: Flags [.], ack 191, win 453, options [nop,nop,TS val 46286494 ecr 18595231], length 0
	0x0000:  0024 1d0f 00ad 0800 27cc 8a1e 0800 4500  .$......'.....E.
	0x0010:  0034 d4b8 4000 4006 167f 3be9 ebdf 3be9  .4..@.@...;...;.
	0x0020:  ebda 2f59 994f baa8 fb25 9d18 1580 8010  ../Y.O...%......
	0x0030:  01c5 ec40 0000 0101 080a 02c2 469e 011b  ...@........F...
	0x0040:  bd9f                                     ..
06:23:36.803330 IP 59.233.235.218.39247 > 59.233.235.223.12121: Flags [P.], seq 191:192, ack 228, win 115, options [nop,nop,TS val 18595254 ecr 46286494], length 1
	0x0000:  0800 27cc 8a1e 0024 1d0f 00ad 0800 4510  ..'....$......E.
	0x0010:  0035 a100 4000 4006 4a26 3be9 ebda 3be9  .5..@.@.J&;...;.
	0x0020:  ebdf 994f 2f59 9d18 1580 baa8 fb25 8018  ...O/Y.......%..
	0x0030:  0073 7f72 0000 0101 080a 011b bdb6 02c2  .s.r............
	0x0040:  469e 6e                                  F.n
06:23:36.803391 IP 59.233.235.223.12121 > 59.233.235.218.39247: Flags [.], ack 192, win 453, options [nop,nop,TS val 46286551 ecr 18595254], length 0
	0x0000:  0024 1d0f 00ad 0800 27cc 8a1e 0800 4500  .$......'.....E.
	0x0010:  0034 d4b9 4000 4006 167e 3be9 ebdf 3be9  .4..@.@..~;...;.
	0x0020:  ebda 2f59 994f baa8 fb25 9d18 1581 8010  ../Y.O...%......
	0x0030:  01c5 ebef 0000 0101 080a 02c2 46d7 011b  ............F...
	0x0040:  bdb6                                     ..
06:23:36.943261 IP 59.233.235.218.39247 > 59.233.235.223.12121: Flags [P.], seq 192:193, ack 228, win 115, options [nop,nop,TS val 18595268 ecr 46286551], length 1
	0x0000:  0800 27cc 8a1e 0024 1d0f 00ad 0800 4510  ..'....$......E.
	0x0010:  0035 a101 4000 4006 4a25 3be9 ebda 3be9  .5..@.@.J%;...;.
	0x0020:  ebdf 994f 2f59 9d18 1581 baa8 fb25 8018  ...O/Y.......%..
	0x0030:  0073 892a 0000 0101 080a 011b bdc4 02c2  .s.*............
	0x0040:  46d7 64                                  F.d
06:23:36.943318 IP 59.233.235.223.12121 > 59.233.235.218.39247: Flags [.], ack 193, win 453, options [nop,nop,TS val 46286586 ecr 18595268], length 0
	0x0000:  0024 1d0f 00ad 0800 27cc 8a1e 0800 4500  .$......'.....E.
	0x0010:  0034 d4ba 4000 4006 167d 3be9 ebdf 3be9  .4..@.@..};...;.
	0x0020:  ebda 2f59 994f baa8 fb25 9d18 1582 8010  ../Y.O...%......
	0x0030:  01c5 ebbd 0000 0101 080a 02c2 46fa 011b  ............F...
	0x0040:  bdc4                                     ..
06:23:37.283708 IP 59.233.235.218.39247 > 59.233.235.223.12121: Flags [P.], seq 193:194, ack 228, win 115, options [nop,nop,TS val 18595302 ecr 46286586], length 1
	0x0000:  0800 27cc 8a1e 0024 1d0f 00ad 0800 4510  ..'....$......E.
	0x0010:  0035 a102 4000 4006 4a24 3be9 ebda 3be9  .5..@.@.J$;...;.
	0x0020:  ebdf 994f 2f59 9d18 1582 baa8 fb25 8018  ...O/Y.......%..
	0x0030:  0073 7ae4 0000 0101 080a 011b bde6 02c2  .sz.............
	0x0040:  46fa 72                                  F.r
06:23:37.283783 IP 59.233.235.223.12121 > 59.233.235.218.39247: Flags [.], ack 194, win 453, options [nop,nop,TS val 46286671 ecr 18595302], length 0
	0x0000:  0024 1d0f 00ad 0800 27cc 8a1e 0800 4500  .$......'.....E.
	0x0010:  0034 d4bb 4000 4006 167c 3be9 ebdf 3be9  .4..@.@..|;...;.
	0x0020:  ebda 2f59 994f baa8 fb25 9d18 1583 8010  ../Y.O...%......
	0x0030:  01c5 eb45 0000 0101 080a 02c2 474f 011b  ...E........GO..
	0x0040:  bde6                                     ..
06:23:38.864101 IP 59.233.235.218.39247 > 59.233.235.223.12121: Flags [P.], seq 194:195, ack 228, win 115, options [nop,nop,TS val 18595460 ecr 46286671], length 1
	0x0000:  0800 27cc 8a1e 0024 1d0f 00ad 0800 4510  ..'....$......E.
	0x0010:  0035 a103 4000 4006 4a23 3be9 ebda 3be9  .5..@.@.J#;...;.
	0x0020:  ebdf 994f 2f59 9d18 1583 baa8 fb25 8018  ...O/Y.......%..
	0x0030:  0073 6cf0 0000 0101 080a 011b be84 02c2  .sl.............
	0x0040:  474f 7f                                  GO.
06:23:38.864181 IP 59.233.235.223.12121 > 59.233.235.218.39247: Flags [.], ack 195, win 453, options [nop,nop,TS val 46287066 ecr 18595460], length 0
	0x0000:  0024 1d0f 00ad 0800 27cc 8a1e 0800 4500  .$......'.....E.
	0x0010:  0034 d4bc 4000 4006 167b 3be9 ebdf 3be9  .4..@.@..{;...;.
	0x0020:  ebda 2f59 994f baa8 fb25 9d18 1584 8010  ../Y.O...%......
	0x0030:  01c5 e91b 0000 0101 080a 02c2 48da 011b  ............H...
	0x0040:  be84                                     ..
06:23:39.233935 IP 59.233.235.218.39247 > 59.233.235.223.12121: Flags [P.], seq 195:196, ack 228, win 115, options [nop,nop,TS val 18595497 ecr 46287066], length 1
	0x0000:  0800 27cc 8a1e 0024 1d0f 00ad 0800 4510  ..'....$......E.
	0x0010:  0035 a104 4000 4006 4a22 3be9 ebda 3be9  .5..@.@.J";...;.
	0x0020:  ebdf 994f 2f59 9d18 1584 baa8 fb25 8018  ...O/Y.......%..
	0x0030:  0073 6b3f 0000 0101 080a 011b bea9 02c2  .sk?............
	0x0040:  48da 7f                                  H..
06:23:39.234016 IP 59.233.235.223.12121 > 59.233.235.218.39247: Flags [.], ack 196, win 453, options [nop,nop,TS val 46287159 ecr 18595497], length 0
	0x0000:  0024 1d0f 00ad 0800 27cc 8a1e 0800 4500  .$......'.....E.
	0x0010:  0034 d4bd 4000 4006 167a 3be9 ebdf 3be9  .4..@.@..z;...;.
	0x0020:  ebda 2f59 994f baa8 fb25 9d18 1585 8010  ../Y.O...%......
	0x0030:  01c5 e898 0000 0101 080a 02c2 4937 011b  ............I7..
	0x0040:  bea9                                     ..
06:23:39.604364 IP 59.233.235.218.39247 > 59.233.235.223.12121: Flags [P.], seq 196:197, ack 228, win 115, options [nop,nop,TS val 18595534 ecr 46287159], length 1
	0x0000:  0800 27cc 8a1e 0024 1d0f 00ad 0800 4510  ..'....$......E.
	0x0010:  0035 a105 4000 4006 4a21 3be9 ebda 3be9  .5..@.@.J!;...;.
	0x0020:  ebdf 994f 2f59 9d18 1585 baa8 fb25 8018  ...O/Y.......%..
	0x0030:  0073 6abc 0000 0101 080a 011b bece 02c2  .sj.............
	0x0040:  4937 7f                                  I7.
06:23:39.604414 IP 59.233.235.223.12121 > 59.233.235.218.39247: Flags [.], ack 197, win 453, options [nop,nop,TS val 46287251 ecr 18595534], length 0
	0x0000:  0024 1d0f 00ad 0800 27cc 8a1e 0800 4500  .$......'.....E.
	0x0010:  0034 d4be 4000 4006 1679 3be9 ebdf 3be9  .4..@.@..y;...;.
	0x0020:  ebda 2f59 994f baa8 fb25 9d18 1586 8010  ../Y.O...%......
	0x0030:  01c5 e816 0000 0101 080a 02c2 4993 011b  ............I...
	0x0040:  bece                                     ..
06:23:40.374542 IP 59.233.235.218.39247 > 59.233.235.223.12121: Flags [P.], seq 197:198, ack 228, win 115, options [nop,nop,TS val 18595611 ecr 46287251], length 1
	0x0000:  0800 27cc 8a1e 0024 1d0f 00ad 0800 4510  ..'....$......E.
	0x0010:  0035 a106 4000 4006 4a20 3be9 ebda 3be9  .5..@.@.J.;...;.
	0x0020:  ebdf 994f 2f59 9d18 1586 baa8 fb25 8018  ...O/Y.......%..
	0x0030:  0073 9b12 0000 0101 080a 011b bf1b 02c2  .s..............
	0x0040:  4993 4e                                  I.N
06:23:40.374620 IP 59.233.235.223.12121 > 59.233.235.218.39247: Flags [.], ack 198, win 453, options [nop,nop,TS val 46287444 ecr 18595611], length 0
	0x0000:  0024 1d0f 00ad 0800 27cc 8a1e 0800 4500  .$......'.....E.
	0x0010:  0034 d4bf 4000 4006 1678 3be9 ebdf 3be9  .4..@.@..x;...;.
	0x0020:  ebda 2f59 994f baa8 fb25 9d18 1587 8010  ../Y.O...%......
	0x0030:  01c5 e707 0000 0101 080a 02c2 4a54 011b  ............JT..
	0x0040:  bf1b                                     ..
06:23:40.574439 IP 59.233.235.218.39247 > 59.233.235.223.12121: Flags [P.], seq 198:199, ack 228, win 115, options [nop,nop,TS val 18595631 ecr 46287444], length 1
	0x0000:  0800 27cc 8a1e 0024 1d0f 00ad 0800 4510  ..'....$......E.
	0x0010:  0035 a107 4000 4006 4a1f 3be9 ebda 3be9  .5..@.@.J.;...;.
	0x0020:  ebdf 994f 2f59 9d18 1587 baa8 fb25 8018  ...O/Y.......%..
	0x0030:  0073 a43c 0000 0101 080a 011b bf2f 02c2  .s.<........./..
	0x0040:  4a54 44                                  JTD
06:23:40.574508 IP 59.233.235.223.12121 > 59.233.235.218.39247: Flags [.], ack 199, win 453, options [nop,nop,TS val 46287494 ecr 18595631], length 0
	0x0000:  0024 1d0f 00ad 0800 27cc 8a1e 0800 4500  .$......'.....E.
	0x0010:  0034 d4c0 4000 4006 1677 3be9 ebdf 3be9  .4..@.@..w;...;.
	0x0020:  ebda 2f59 994f baa8 fb25 9d18 1588 8010  ../Y.O...%......
	0x0030:  01c5 e6c0 0000 0101 080a 02c2 4a86 011b  ............J...
	0x0040:  bf2f                                     ./
06:23:42.264451 IP 59.233.235.218.39247 > 59.233.235.223.12121: Flags [P.], seq 199:200, ack 228, win 115, options [nop,nop,TS val 18595800 ecr 46287494], length 1
	0x0000:  0800 27cc 8a1e 0024 1d0f 00ad 0800 4510  ..'....$......E.
	0x0010:  0035 a108 4000 4006 4a1e 3be9 ebda 3be9  .5..@.@.J.;...;.
	0x0020:  ebdf 994f 2f59 9d18 1588 baa8 fb25 8018  ...O/Y.......%..
	0x0030:  0073 9560 0000 0101 080a 011b bfd8 02c2  .s.`............
	0x0040:  4a86 52                                  J.R
06:23:42.264529 IP 59.233.235.223.12121 > 59.233.235.218.39247: Flags [.], ack 200, win 453, options [nop,nop,TS val 46287916 ecr 18595800], length 0
	0x0000:  0024 1d0f 00ad 0800 27cc 8a1e 0800 4500  .$......'.....E.
	0x0010:  0034 d4c1 4000 4006 1676 3be9 ebdf 3be9  .4..@.@..v;...;.
	0x0020:  ebda 2f59 994f baa8 fb25 9d18 1589 8010  ../Y.O...%......
	0x0030:  01c5 e470 0000 0101 080a 02c2 4c2c 011b  ...p........L,..
	0x0040:  bfd8                                     ..
06:23:43.574954 IP 59.233.235.218.39247 > 59.233.235.223.12121: Flags [P.], seq 200:201, ack 228, win 115, options [nop,nop,TS val 18595931 ecr 46287916], length 1
	0x0000:  0800 27cc 8a1e 0024 1d0f 00ad 0800 4510  ..'....$......E.
	0x0010:  0035 a109 4000 4006 4a1d 3be9 ebda 3be9  .5..@.@.J.;...;.
	0x0020:  ebdf 994f 2f59 9d18 1589 baa8 fb25 8018  ...O/Y.......%..
	0x0030:  0073 8036 0000 0101 080a 011b c05b 02c2  .s.6.........[..
	0x0040:  4c2c 65                                  L,e
06:23:43.575036 IP 59.233.235.223.12121 > 59.233.235.218.39247: Flags [.], ack 201, win 453, options [nop,nop,TS val 46288244 ecr 18595931], length 0
	0x0000:  0024 1d0f 00ad 0800 27cc 8a1e 0800 4500  .$......'.....E.
	0x0010:  0034 d4c2 4000 4006 1675 3be9 ebdf 3be9  .4..@.@..u;...;.
	0x0020:  ebda 2f59 994f baa8 fb25 9d18 158a 8010  ../Y.O...%......
	0x0030:  01c5 e2a4 0000 0101 080a 02c2 4d74 011b  ............Mt..
	0x0040:  c05b                                     .[
06:23:44.014684 IP 59.233.235.218.39247 > 59.233.235.223.12121: Flags [P.], seq 201:202, ack 228, win 115, options [nop,nop,TS val 18595975 ecr 46288244], length 1
	0x0000:  0800 27cc 8a1e 0024 1d0f 00ad 0800 4510  ..'....$......E.
	0x0010:  0035 a10a 4000 4006 4a1c 3be9 ebda 3be9  .5..@.@.J.;...;.
	0x0020:  ebdf 994f 2f59 9d18 158a baa8 fb25 8018  ...O/Y.......%..
	0x0030:  0073 77c1 0000 0101 080a 011b c087 02c2  .sw.............
	0x0040:  4d74 6c                                  Mtl
06:23:44.014742 IP 59.233.235.223.12121 > 59.233.235.218.39247: Flags [.], ack 202, win 453, options [nop,nop,TS val 46288354 ecr 18595975], length 0
	0x0000:  0024 1d0f 00ad 0800 27cc 8a1e 0800 4500  .$......'.....E.
	0x0010:  0034 d4c3 4000 4006 1674 3be9 ebdf 3be9  .4..@.@..t;...;.
	0x0020:  ebda 2f59 994f baa8 fb25 9d18 158b 8010  ../Y.O...%......
	0x0030:  01c5 e209 0000 0101 080a 02c2 4de2 011b  ............M...
	0x0040:  c087                                     ..
06:23:44.635281 IP 59.233.235.218.39247 > 59.233.235.223.12121: Flags [P.], seq 202:203, ack 228, win 115, options [nop,nop,TS val 18596037 ecr 46288354], length 1
	0x0000:  0800 27cc 8a1e 0024 1d0f 00ad 0800 4510  ..'....$......E.
	0x0010:  0035 a10b 4000 4006 4a1b 3be9 ebda 3be9  .5..@.@.J.;...;.
	0x0020:  ebdf 994f 2f59 9d18 158b baa8 fb25 8018  ...O/Y.......%..
	0x0030:  0073 6414 0000 0101 080a 011b c0c5 02c2  .sd.............
	0x0040:  4de2 7f                                  M..
06:23:44.635364 IP 59.233.235.223.12121 > 59.233.235.218.39247: Flags [.], ack 203, win 453, options [nop,nop,TS val 46288509 ecr 18596037], length 0
	0x0000:  0024 1d0f 00ad 0800 27cc 8a1e 0800 4500  .$......'.....E.
	0x0010:  0034 d4c4 4000 4006 1673 3be9 ebdf 3be9  .4..@.@..s;...;.
	0x0020:  ebda 2f59 994f baa8 fb25 9d18 158c 8010  ../Y.O...%......
	0x0030:  01c5 e12f 0000 0101 080a 02c2 4e7d 011b  .../........N}..
	0x0040:  c0c5                                     ..
06:23:44.805020 IP 59.233.235.218.39247 > 59.233.235.223.12121: Flags [P.], seq 203:204, ack 228, win 115, options [nop,nop,TS val 18596054 ecr 46288509], length 1
	0x0000:  0800 27cc 8a1e 0024 1d0f 00ad 0800 4510  ..'....$......E.
	0x0010:  0035 a10c 4000 4006 4a1a 3be9 ebda 3be9  .5..@.@.J.;...;.
	0x0020:  ebdf 994f 2f59 9d18 158c baa8 fb25 8018  ...O/Y.......%..
	0x0030:  0073 9667 0000 0101 080a 011b c0d6 02c2  .s.g............
	0x0040:  4e7d 4c                                  N}L
06:23:44.805072 IP 59.233.235.223.12121 > 59.233.235.218.39247: Flags [.], ack 204, win 453, options [nop,nop,TS val 46288552 ecr 18596054], length 0
	0x0000:  0024 1d0f 00ad 0800 27cc 8a1e 0800 4500  .$......'.....E.
	0x0010:  0034 d4c5 4000 4006 1672 3be9 ebdf 3be9  .4..@.@..r;...;.
	0x0020:  ebda 2f59 994f baa8 fb25 9d18 158d 8010  ../Y.O...%......
	0x0030:  01c5 e0f2 0000 0101 080a 02c2 4ea8 011b  ............N...
	0x0040:  c0d6                                     ..
06:23:45.074939 IP 59.233.235.218.39247 > 59.233.235.223.12121: Flags [P.], seq 204:205, ack 228, win 115, options [nop,nop,TS val 18596081 ecr 46288552], length 1
	0x0000:  0800 27cc 8a1e 0024 1d0f 00ad 0800 4510  ..'....$......E.
	0x0010:  0035 a10d 4000 4006 4a19 3be9 ebda 3be9  .5..@.@.J.;...;.
	0x0020:  ebdf 994f 2f59 9d18 158d baa8 fb25 8018  ...O/Y.......%..
	0x0030:  0073 b220 0000 0101 080a 011b c0f1 02c2  .s..............
	0x0040:  4ea8 30                                  N.0
06:23:45.074992 IP 59.233.235.223.12121 > 59.233.235.218.39247: Flags [.], ack 205, win 453, options [nop,nop,TS val 46288619 ecr 18596081], length 0
	0x0000:  0024 1d0f 00ad 0800 27cc 8a1e 0800 4500  .$......'.....E.
	0x0010:  0034 d4c6 4000 4006 1671 3be9 ebdf 3be9  .4..@.@..q;...;.
	0x0020:  ebda 2f59 994f baa8 fb25 9d18 158e 8010  ../Y.O...%......
	0x0030:  01c5 e093 0000 0101 080a 02c2 4eeb 011b  ............N...
	0x0040:  c0f1                                     ..
06:23:45.104894 IP 59.233.235.218.39247 > 59.233.235.223.12121: Flags [P.], seq 205:206, ack 228, win 115, options [nop,nop,TS val 18596084 ecr 46288619], length 1
	0x0000:  0800 27cc 8a1e 0024 1d0f 00ad 0800 4510  ..'....$......E.
	0x0010:  0035 a10e 4000 4006 4a18 3be9 ebda 3be9  .5..@.@.J.;...;.
	0x0020:  ebdf 994f 2f59 9d18 158e baa8 fb25 8018  ...O/Y.......%..
	0x0030:  0073 95d9 0000 0101 080a 011b c0f4 02c2  .s..............
	0x0040:  4eeb 4c                                  N.L
06:23:45.104948 IP 59.233.235.223.12121 > 59.233.235.218.39247: Flags [.], ack 206, win 453, options [nop,nop,TS val 46288626 ecr 18596084], length 0
	0x0000:  0024 1d0f 00ad 0800 27cc 8a1e 0800 4500  .$......'.....E.
	0x0010:  0034 d4c7 4000 4006 1670 3be9 ebdf 3be9  .4..@.@..p;...;.
	0x0020:  ebda 2f59 994f baa8 fb25 9d18 158f 8010  ../Y.O...%......
	0x0030:  01c5 e088 0000 0101 080a 02c2 4ef2 011b  ............N...
	0x0040:  c0f4                                     ..
06:23:45.965233 IP 59.233.235.218.39247 > 59.233.235.223.12121: Flags [P.], seq 206:207, ack 228, win 115, options [nop,nop,TS val 18596170 ecr 46288626], length 1
	0x0000:  0800 27cc 8a1e 0024 1d0f 00ad 0800 4510  ..'....$......E.
	0x0010:  0035 a10f 4000 4006 4a17 3be9 ebda 3be9  .5..@.@.J.;...;.
	0x0020:  ebdf 994f 2f59 9d18 158f baa8 fb25 8018  ...O/Y.......%..
	0x0030:  0073 d47b 0000 0101 080a 011b c14a 02c2  .s.{.........J..
	0x0040:  4ef2 0d                                  N..
06:23:45.965310 IP 59.233.235.223.12121 > 59.233.235.218.39247: Flags [.], ack 207, win 453, options [nop,nop,TS val 46288842 ecr 18596170], length 0
	0x0000:  0024 1d0f 00ad 0800 27cc 8a1e 0800 4500  .$......'.....E.
	0x0010:  0034 d4c8 4000 4006 166f 3be9 ebdf 3be9  .4..@.@..o;...;.
	0x0020:  ebda 2f59 994f baa8 fb25 9d18 1590 8010  ../Y.O...%......
	0x0030:  01c5 df59 0000 0101 080a 02c2 4fca 011b  ...Y........O...
	0x0040:  c14a                                     .J
06:23:45.972986 IP 59.233.235.223.12121 > 59.233.235.218.39247: Flags [P.], seq 228:231, ack 207, win 453, options [nop,nop,TS val 46288844 ecr 18596170], length 3
	0x0000:  0024 1d0f 00ad 0800 27cc 8a1e 0800 4500  .$......'.....E.
	0x0010:  0037 d4c9 4000 4006 166b 3be9 ebdf 3be9  .7..@.@..k;...;.
	0x0020:  ebda 2f59 994f baa8 fb25 9d18 1590 8018  ../Y.O...%......
	0x0030:  01c5 d53f 0000 0101 080a 02c2 4fcc 011b  ...?........O...
	0x0040:  c14a 000d 0a                             .J...
06:23:45.973182 IP 59.233.235.218.39247 > 59.233.235.223.12121: Flags [.], ack 231, win 115, options [nop,nop,TS val 18596170 ecr 46288844], length 0
	0x0000:  0800 27cc 8a1e 0024 1d0f 00ad 0800 4510  ..'....$......E.
	0x0010:  0034 a110 4000 4006 4a17 3be9 ebda 3be9  .4..@.@.J.;...;.
	0x0020:  ebdf 994f 2f59 9d18 1590 baa8 fb28 8010  ...O/Y.......(..
	0x0030:  0073 e0a6 0000 0101 080a 011b c14a 02c2  .s...........J..
	0x0040:  4fcc                                     O.
06:23:48.730070 IP 59.233.235.223.12121 > 59.233.235.218.39247: Flags [P.], seq 231:232, ack 207, win 453, options [nop,nop,TS val 46289533 ecr 18596170], length 1
	0x0000:  0024 1d0f 00ad 0800 27cc 8a1e 0800 4500  .$......'.....E.
	0x0010:  0035 d4ca 4000 4006 166c 3be9 ebdf 3be9  .5..@.@..l;...;.
	0x0020:  ebda 2f59 994f baa8 fb28 9d18 1590 8018  ../Y.O...(......
	0x0030:  01c5 db9a 0000 0101 080a 02c2 527d 011b  ............R}..
	0x0040:  c14a 01                                  .J.
06:23:48.730327 IP 59.233.235.218.39247 > 59.233.235.223.12121: Flags [.], ack 232, win 115, options [nop,nop,TS val 18596446 ecr 46289533], length 0
	0x0000:  0800 27cc 8a1e 0024 1d0f 00ad 0800 4510  ..'....$......E.
	0x0010:  0034 a111 4000 4006 4a16 3be9 ebda 3be9  .4..@.@.J.;...;.
	0x0020:  ebdf 994f 2f59 9d18 1590 baa8 fb29 8010  ...O/Y.......)..
	0x0030:  0073 dce0 0000 0101 080a 011b c25e 02c2  .s...........^..
	0x0040:  527d                                     R}
06:23:48.730424 IP 59.233.235.223.12121 > 59.233.235.218.39247: Flags [P.], seq 232:267, ack 207, win 453, options [nop,nop,TS val 46289533 ecr 18596446], length 35
	0x0000:  0024 1d0f 00ad 0800 27cc 8a1e 0800 4500  .$......'.....E.
	0x0010:  0057 d4cb 4000 4006 1649 3be9 ebdf 3be9  .W..@.@..I;...;.
	0x0020:  ebda 2f59 994f baa8 fb29 9d18 1590 8018  ../Y.O...)......
	0x0030:  01c5 dd9c 0000 0101 080a 02c2 527d 011b  ............R}..
	0x0040:  c25e 000d 0a4c 6f67 696e 2069 6e63 6f72  .^...Login.incor
	0x0050:  7265 6374 0d0a 7777 7762 7567 7320 6c6f  rect..wwwbugs.lo
	0x0060:  6769 6e3a 20                             gin:.
06:23:48.730579 IP 59.233.235.218.39247 > 59.233.235.223.12121: Flags [.], ack 267, win 115, options [nop,nop,TS val 18596446 ecr 46289533], length 0
	0x0000:  0800 27cc 8a1e 0024 1d0f 00ad 0800 4510  ..'....$......E.
	0x0010:  0034 a112 4000 4006 4a15 3be9 ebda 3be9  .4..@.@.J.;...;.
	0x0020:  ebdf 994f 2f59 9d18 1590 baa8 fb4c 8010  ...O/Y.......L..
	0x0030:  0073 dcbd 0000 0101 080a 011b c25e 02c2  .s...........^..
	0x0040:  527d                                     R}
06:23:54.377030 IP 59.233.235.218.39247 > 59.233.235.223.12121: Flags [F.], seq 207, ack 267, win 115, options [nop,nop,TS val 18597011 ecr 46289533], length 0
	0x0000:  0800 27cc 8a1e 0024 1d0f 00ad 0800 4510  ..'....$......E.
	0x0010:  0034 a113 4000 4006 4a14 3be9 ebda 3be9  .4..@.@.J.;...;.
	0x0020:  ebdf 994f 2f59 9d18 1590 baa8 fb4c 8011  ...O/Y.......L..
	0x0030:  0073 da87 0000 0101 080a 011b c493 02c2  .s..............
	0x0040:  527d                                     R}
06:23:54.377594 IP 59.233.235.223.12121 > 59.233.235.218.39247: Flags [F.], seq 267, ack 208, win 453, options [nop,nop,TS val 46290945 ecr 18597011], length 0
	0x0000:  0024 1d0f 00ad 0800 27cc 8a1e 0800 4500  .$......'.....E.
	0x0010:  0034 d4cc 4000 4006 166b 3be9 ebdf 3be9  .4..@.@..k;...;.
	0x0020:  ebda 2f59 994f baa8 fb4c 9d18 1591 8011  ../Y.O...L......
	0x0030:  01c5 d3b0 0000 0101 080a 02c2 5801 011b  ............X...
	0x0040:  c493                                     ..
06:23:54.377802 IP 59.233.235.218.39247 > 59.233.235.223.12121: Flags [.], ack 268, win 115, options [nop,nop,TS val 18597011 ecr 46290945], length 0
	0x0000:  0800 27cc 8a1e 0024 1d0f 00ad 0800 4510  ..'....$......E.
	0x0010:  0034 a114 4000 4006 4a13 3be9 ebda 3be9  .4..@.@.J.;...;.
	0x0020:  ebdf 994f 2f59 9d18 1591 baa8 fb4d 8010  ...O/Y.......M..
	0x0030:  0073 d502 0000 0101 080a 011b c493 02c2  .s..............
	0x0040:  5801                                     X.

